{
    "_format": "hh-sol-artifact-1",
    "contractName": "Collection",
    "sourceName": "contracts/Collection.sol",
    "abi": [
        {
            "inputs": [],
            "stateMutability": "nonpayable",
            "type": "constructor"
        },
        {
            "anonymous": false,
            "inputs": [
                {
                    "indexed": true,
                    "internalType": "address",
                    "name": "owner",
                    "type": "address"
                },
                {
                    "indexed": true,
                    "internalType": "address",
                    "name": "approved",
                    "type": "address"
                },
                {
                    "indexed": true,
                    "internalType": "uint256",
                    "name": "tokenId",
                    "type": "uint256"
                }
            ],
            "name": "Approval",
            "type": "event"
        },
        {
            "anonymous": false,
            "inputs": [
                {
                    "indexed": true,
                    "internalType": "address",
                    "name": "owner",
                    "type": "address"
                },
                {
                    "indexed": true,
                    "internalType": "address",
                    "name": "operator",
                    "type": "address"
                },
                {
                    "indexed": false,
                    "internalType": "bool",
                    "name": "approved",
                    "type": "bool"
                }
            ],
            "name": "ApprovalForAll",
            "type": "event"
        },
        {
            "anonymous": false,
            "inputs": [
                {
                    "indexed": true,
                    "internalType": "address",
                    "name": "previousOwner",
                    "type": "address"
                },
                {
                    "indexed": true,
                    "internalType": "address",
                    "name": "newOwner",
                    "type": "address"
                }
            ],
            "name": "OwnershipTransferred",
            "type": "event"
        },
        {
            "anonymous": false,
            "inputs": [
                {
                    "indexed": true,
                    "internalType": "address",
                    "name": "from",
                    "type": "address"
                },
                {
                    "indexed": true,
                    "internalType": "address",
                    "name": "to",
                    "type": "address"
                },
                {
                    "indexed": true,
                    "internalType": "uint256",
                    "name": "tokenId",
                    "type": "uint256"
                }
            ],
            "name": "Transfer",
            "type": "event"
        },
        {
            "inputs": [],
            "name": "LIMIT_PER_ADDRESS",
            "outputs": [
                {
                    "internalType": "uint256",
                    "name": "",
                    "type": "uint256"
                }
            ],
            "stateMutability": "view",
            "type": "function"
        },
        {
            "inputs": [],
            "name": "MAX_SUPPLY",
            "outputs": [
                {
                    "internalType": "uint256",
                    "name": "",
                    "type": "uint256"
                }
            ],
            "stateMutability": "view",
            "type": "function"
        },
        {
            "inputs": [],
            "name": "PRICE_PER_TOKEN",
            "outputs": [
                {
                    "internalType": "uint256",
                    "name": "",
                    "type": "uint256"
                }
            ],
            "stateMutability": "view",
            "type": "function"
        },
        {
            "inputs": [
                {
                    "internalType": "address",
                    "name": "to",
                    "type": "address"
                },
                {
                    "internalType": "uint256",
                    "name": "tokenId",
                    "type": "uint256"
                }
            ],
            "name": "approve",
            "outputs": [],
            "stateMutability": "nonpayable",
            "type": "function"
        },
        {
            "inputs": [
                {
                    "internalType": "address",
                    "name": "owner",
                    "type": "address"
                }
            ],
            "name": "balanceOf",
            "outputs": [
                {
                    "internalType": "uint256",
                    "name": "",
                    "type": "uint256"
                }
            ],
            "stateMutability": "view",
            "type": "function"
        },
        {
            "inputs": [
                {
                    "internalType": "uint256",
                    "name": "tokenId",
                    "type": "uint256"
                }
            ],
            "name": "getApproved",
            "outputs": [
                {
                    "internalType": "address",
                    "name": "",
                    "type": "address"
                }
            ],
            "stateMutability": "view",
            "type": "function"
        },
        {
            "inputs": [
                {
                    "internalType": "address",
                    "name": "owner",
                    "type": "address"
                },
                {
                    "internalType": "address",
                    "name": "operator",
                    "type": "address"
                }
            ],
            "name": "isApprovedForAll",
            "outputs": [
                {
                    "internalType": "bool",
                    "name": "",
                    "type": "bool"
                }
            ],
            "stateMutability": "view",
            "type": "function"
        },
        {
            "inputs": [
                {
                    "internalType": "string",
                    "name": "tokenURI",
                    "type": "string"
                }
            ],
            "name": "mintNFT",
            "outputs": [
                {
                    "internalType": "uint256",
                    "name": "",
                    "type": "uint256"
                }
            ],
            "stateMutability": "payable",
            "type": "function"
        },
        {
            "inputs": [],
            "name": "name",
            "outputs": [
                {
                    "internalType": "string",
                    "name": "",
                    "type": "string"
                }
            ],
            "stateMutability": "view",
            "type": "function"
        },
        {
            "inputs": [],
            "name": "owner",
            "outputs": [
                {
                    "internalType": "address",
                    "name": "",
                    "type": "address"
                }
            ],
            "stateMutability": "view",
            "type": "function"
        },
        {
            "inputs": [
                {
                    "internalType": "uint256",
                    "name": "tokenId",
                    "type": "uint256"
                }
            ],
            "name": "ownerOf",
            "outputs": [
                {
                    "internalType": "address",
                    "name": "",
                    "type": "address"
                }
            ],
            "stateMutability": "view",
            "type": "function"
        },
        {
            "inputs": [],
            "name": "renounceOwnership",
            "outputs": [],
            "stateMutability": "nonpayable",
            "type": "function"
        },
        {
            "inputs": [
                {
                    "internalType": "address",
                    "name": "from",
                    "type": "address"
                },
                {
                    "internalType": "address",
                    "name": "to",
                    "type": "address"
                },
                {
                    "internalType": "uint256",
                    "name": "tokenId",
                    "type": "uint256"
                }
            ],
            "name": "safeTransferFrom",
            "outputs": [],
            "stateMutability": "nonpayable",
            "type": "function"
        },
        {
            "inputs": [
                {
                    "internalType": "address",
                    "name": "from",
                    "type": "address"
                },
                {
                    "internalType": "address",
                    "name": "to",
                    "type": "address"
                },
                {
                    "internalType": "uint256",
                    "name": "tokenId",
                    "type": "uint256"
                },
                {
                    "internalType": "bytes",
                    "name": "data",
                    "type": "bytes"
                }
            ],
            "name": "safeTransferFrom",
            "outputs": [],
            "stateMutability": "nonpayable",
            "type": "function"
        },
        {
            "inputs": [
                {
                    "internalType": "address",
                    "name": "operator",
                    "type": "address"
                },
                {
                    "internalType": "bool",
                    "name": "approved",
                    "type": "bool"
                }
            ],
            "name": "setApprovalForAll",
            "outputs": [],
            "stateMutability": "nonpayable",
            "type": "function"
        },
        {
            "inputs": [
                {
                    "internalType": "uint256",
                    "name": "limit",
                    "type": "uint256"
                }
            ],
            "name": "setLimit",
            "outputs": [],
            "stateMutability": "nonpayable",
            "type": "function"
        },
        {
            "inputs": [
                {
                    "internalType": "uint256",
                    "name": "maxSupply",
                    "type": "uint256"
                }
            ],
            "name": "setMaxSupply",
            "outputs": [],
            "stateMutability": "nonpayable",
            "type": "function"
        },
        {
            "inputs": [
                {
                    "internalType": "uint256",
                    "name": "price",
                    "type": "uint256"
                }
            ],
            "name": "setPrice",
            "outputs": [],
            "stateMutability": "nonpayable",
            "type": "function"
        },
        {
            "inputs": [
                {
                    "internalType": "bytes4",
                    "name": "interfaceId",
                    "type": "bytes4"
                }
            ],
            "name": "supportsInterface",
            "outputs": [
                {
                    "internalType": "bool",
                    "name": "",
                    "type": "bool"
                }
            ],
            "stateMutability": "view",
            "type": "function"
        },
        {
            "inputs": [],
            "name": "symbol",
            "outputs": [
                {
                    "internalType": "string",
                    "name": "",
                    "type": "string"
                }
            ],
            "stateMutability": "view",
            "type": "function"
        },
        {
            "inputs": [
                {
                    "internalType": "uint256",
                    "name": "tokenId",
                    "type": "uint256"
                }
            ],
            "name": "tokenURI",
            "outputs": [
                {
                    "internalType": "string",
                    "name": "",
                    "type": "string"
                }
            ],
            "stateMutability": "view",
            "type": "function"
        },
        {
            "inputs": [
                {
                    "internalType": "address",
                    "name": "from",
                    "type": "address"
                },
                {
                    "internalType": "address",
                    "name": "to",
                    "type": "address"
                },
                {
                    "internalType": "uint256",
                    "name": "tokenId",
                    "type": "uint256"
                }
            ],
            "name": "transferFrom",
            "outputs": [],
            "stateMutability": "nonpayable",
            "type": "function"
        },
        {
            "inputs": [
                {
                    "internalType": "address",
                    "name": "newOwner",
                    "type": "address"
                }
            ],
            "name": "transferOwnership",
            "outputs": [],
            "stateMutability": "nonpayable",
            "type": "function"
        },
        {
            "inputs": [],
            "name": "withdrawMoney",
            "outputs": [],
            "stateMutability": "nonpayable",
            "type": "function"
        }
    ],
    "bytecode": "0x6080604052662386f26fc10000600c556002600d556005600e553480156200002657600080fd5b506040518060400160405280600a81526020017f436f6c6c656374696f6e000000000000000000000000000000000000000000008152506040518060400160405280600381526020017f4e465400000000000000000000000000000000000000000000000000000000008152508160009081620000a4919062000427565b508060019081620000b6919062000427565b505050620000d9620000cd620000df60201b60201c565b620000e760201b60201c565b6200050e565b600033905090565b6000600760009054906101000a900473ffffffffffffffffffffffffffffffffffffffff16905081600760006101000a81548173ffffffffffffffffffffffffffffffffffffffff021916908373ffffffffffffffffffffffffffffffffffffffff1602179055508173ffffffffffffffffffffffffffffffffffffffff168173ffffffffffffffffffffffffffffffffffffffff167f8be0079c531659141344cd1fd0a4f28419497f9722a3daafe3b4186f6b6457e060405160405180910390a35050565b600081519050919050565b7f4e487b7100000000000000000000000000000000000000000000000000000000600052604160045260246000fd5b7f4e487b7100000000000000000000000000000000000000000000000000000000600052602260045260246000fd5b600060028204905060018216806200022f57607f821691505b602082108103620002455762000244620001e7565b5b50919050565b60008190508160005260206000209050919050565b60006020601f8301049050919050565b600082821b905092915050565b600060088302620002af7fffffffffffffffffffffffffffffffffffffffffffffffffffffffffffffffff8262000270565b620002bb868362000270565b95508019841693508086168417925050509392505050565b6000819050919050565b6000819050919050565b60006200030862000302620002fc84620002d3565b620002dd565b620002d3565b9050919050565b6000819050919050565b6200032483620002e7565b6200033c62000333826200030f565b8484546200027d565b825550505050565b600090565b6200035362000344565b6200036081848462000319565b505050565b5b8181101562000388576200037c60008262000349565b60018101905062000366565b5050565b601f821115620003d757620003a1816200024b565b620003ac8462000260565b81016020851015620003bc578190505b620003d4620003cb8562000260565b83018262000365565b50505b505050565b600082821c905092915050565b6000620003fc60001984600802620003dc565b1980831691505092915050565b6000620004178383620003e9565b9150826002028217905092915050565b6200043282620001ad565b67ffffffffffffffff8111156200044e576200044d620001b8565b5b6200045a825462000216565b620004678282856200038c565b600060209050601f8311600181146200049f57600084156200048a578287015190505b62000496858262000409565b86555062000506565b601f198416620004af866200024b565b60005b82811015620004d957848901518255600182019150602085019450602081019050620004b2565b86831015620004f95784890151620004f5601f891682620003e9565b8355505b6001600288020188555050505b505050505050565b613523806200051e6000396000f3fe60806040526004361061014b5760003560e01c8063715018a6116100b6578063ac4460021161006f578063ac4460021461047c578063b88d4fde14610493578063c87b56dd146104bc578063e985e9c5146104f9578063f2fde38b14610536578063fb37e8831461055f5761014b565b8063715018a614610392578063833b9499146103a95780638da5cb5b146103d457806391b7f5ed146103ff57806395d89b4114610428578063a22cb465146104535761014b565b806332cb6b0c1161010857806332cb6b0c14610270578063417bac1a1461029b57806342842e0e146102c65780636352211e146102ef5780636f8b44b01461032c57806370a08231146103555761014b565b806301ffc9a71461015057806306fdde031461018d578063081812fc146101b8578063095ea7b3146101f557806323b872dd1461021e57806327ea6f2b14610247575b600080fd5b34801561015c57600080fd5b50610177600480360381019061017291906120c9565b61058f565b6040516101849190612111565b60405180910390f35b34801561019957600080fd5b506101a2610671565b6040516101af91906121bc565b60405180910390f35b3480156101c457600080fd5b506101df60048036038101906101da9190612214565b610703565b6040516101ec9190612282565b60405180910390f35b34801561020157600080fd5b5061021c600480360381019061021791906122c9565b610749565b005b34801561022a57600080fd5b5061024560048036038101906102409190612309565b610860565b005b34801561025357600080fd5b5061026e60048036038101906102699190612214565b6108c0565b005b34801561027c57600080fd5b506102856108d2565b604051610292919061236b565b60405180910390f35b3480156102a757600080fd5b506102b06108d8565b6040516102bd919061236b565b60405180910390f35b3480156102d257600080fd5b506102ed60048036038101906102e89190612309565b6108de565b005b3480156102fb57600080fd5b5061031660048036038101906103119190612214565b6108fe565b6040516103239190612282565b60405180910390f35b34801561033857600080fd5b50610353600480360381019061034e9190612214565b610984565b005b34801561036157600080fd5b5061037c60048036038101906103779190612386565b610996565b604051610389919061236b565b60405180910390f35b34801561039e57600080fd5b506103a7610a4d565b005b3480156103b557600080fd5b506103be610a61565b6040516103cb919061236b565b60405180910390f35b3480156103e057600080fd5b506103e9610a67565b6040516103f69190612282565b60405180910390f35b34801561040b57600080fd5b5061042660048036038101906104219190612214565b610a91565b005b34801561043457600080fd5b5061043d610aa3565b60405161044a91906121bc565b60405180910390f35b34801561045f57600080fd5b5061047a600480360381019061047591906123df565b610b35565b005b34801561048857600080fd5b50610491610b4b565b005b34801561049f57600080fd5b506104ba60048036038101906104b59190612554565b610ba2565b005b3480156104c857600080fd5b506104e360048036038101906104de9190612214565b610c04565b6040516104f091906121bc565b60405180910390f35b34801561050557600080fd5b50610520600480360381019061051b91906125d7565b610d16565b60405161052d9190612111565b60405180910390f35b34801561054257600080fd5b5061055d60048036038101906105589190612386565b610daa565b005b610579600480360381019061057491906126b8565b610e2d565b604051610586919061236b565b60405180910390f35b60007f80ac58cd000000000000000000000000000000000000000000000000000000007bffffffffffffffffffffffffffffffffffffffffffffffffffffffff1916827bffffffffffffffffffffffffffffffffffffffffffffffffffffffff1916148061065a57507f5b5e139f000000000000000000000000000000000000000000000000000000007bffffffffffffffffffffffffffffffffffffffffffffffffffffffff1916827bffffffffffffffffffffffffffffffffffffffffffffffffffffffff1916145b8061066a5750610669826110cb565b5b9050919050565b60606000805461068090612730565b80601f01602080910402602001604051908101604052809291908181526020018280546106ac90612730565b80156106f95780601f106106ce576101008083540402835291602001916106f9565b820191906000526020600020905b8154815290600101906020018083116106dc57829003601f168201915b5050505050905090565b600061070e82611135565b6004600083815260200190815260200160002060009054906101000a900473ffffffffffffffffffffffffffffffffffffffff169050919050565b6000610754826108fe565b90508073ffffffffffffffffffffffffffffffffffffffff168373ffffffffffffffffffffffffffffffffffffffff16036107c4576040517f08c379a00000000000000000000000000000000000000000000000000000000081526004016107bb906127d3565b60405180910390fd5b8073ffffffffffffffffffffffffffffffffffffffff166107e3611180565b73ffffffffffffffffffffffffffffffffffffffff16148061081257506108118161080c611180565b610d16565b5b610851576040517f08c379a000000000000000000000000000000000000000000000000000000000815260040161084890612865565b60405180910390fd5b61085b8383611188565b505050565b61087161086b611180565b82611241565b6108b0576040517f08c379a00000000000000000000000000000000000000000000000000000000081526004016108a7906128f7565b60405180910390fd5b6108bb8383836112d6565b505050565b6108c86115cf565b80600d8190555050565b600e5481565b600d5481565b6108f983838360405180602001604052806000815250610ba2565b505050565b60008061090a8361164d565b9050600073ffffffffffffffffffffffffffffffffffffffff168173ffffffffffffffffffffffffffffffffffffffff160361097b576040517f08c379a000000000000000000000000000000000000000000000000000000000815260040161097290612963565b60405180910390fd5b80915050919050565b61098c6115cf565b80600e8190555050565b60008073ffffffffffffffffffffffffffffffffffffffff168273ffffffffffffffffffffffffffffffffffffffff1603610a06576040517f08c379a00000000000000000000000000000000000000000000000000000000081526004016109fd906129f5565b60405180910390fd5b600360008373ffffffffffffffffffffffffffffffffffffffff1673ffffffffffffffffffffffffffffffffffffffff168152602001908152602001600020549050919050565b610a556115cf565b610a5f600061168a565b565b600c5481565b6000600760009054906101000a900473ffffffffffffffffffffffffffffffffffffffff16905090565b610a996115cf565b80600c8190555050565b606060018054610ab290612730565b80601f0160208091040260200160405190810160405280929190818152602001828054610ade90612730565b8015610b2b5780601f10610b0057610100808354040283529160200191610b2b565b820191906000526020600020905b815481529060010190602001808311610b0e57829003601f168201915b5050505050905090565b610b47610b40611180565b8383611750565b5050565b610b536115cf565b60003390508073ffffffffffffffffffffffffffffffffffffffff166108fc479081150290604051600060405180830381858888f19350505050158015610b9e573d6000803e3d6000fd5b5050565b610bb3610bad611180565b83611241565b610bf2576040517f08c379a0000000000000000000000000000000000000000000000000000000008152600401610be9906128f7565b60405180910390fd5b610bfe848484846118bc565b50505050565b6060610c0f82611135565b6000600660008481526020019081526020016000208054610c2f90612730565b80601f0160208091040260200160405190810160405280929190818152602001828054610c5b90612730565b8015610ca85780601f10610c7d57610100808354040283529160200191610ca8565b820191906000526020600020905b815481529060010190602001808311610c8b57829003601f168201915b505050505090506000610cb9611918565b90506000815103610cce578192505050610d11565b600082511115610d03578082604051602001610ceb929190612a51565b60405160208183030381529060405292505050610d11565b610d0c8461192f565b925050505b919050565b6000600560008473ffffffffffffffffffffffffffffffffffffffff1673ffffffffffffffffffffffffffffffffffffffff16815260200190815260200160002060008373ffffffffffffffffffffffffffffffffffffffff1673ffffffffffffffffffffffffffffffffffffffff16815260200190815260200160002060009054906101000a900460ff16905092915050565b610db26115cf565b600073ffffffffffffffffffffffffffffffffffffffff168173ffffffffffffffffffffffffffffffffffffffff1603610e21576040517f08c379a0000000000000000000000000000000000000000000000000000000008152600401610e1890612ae7565b60405180910390fd5b610e2a8161168a565b50565b600034600c541115610e74576040517f08c379a0000000000000000000000000000000000000000000000000000000008152600401610e6b90612b53565b60405180910390fd5b600a60003373ffffffffffffffffffffffffffffffffffffffff1673ffffffffffffffffffffffffffffffffffffffff16815260200190815260200160002060009054906101000a900460ff1660ff16600d5411610f07576040517f08c379a0000000000000000000000000000000000000000000000000000000008152600401610efe90612be5565b60405180910390fd5b600e54610f146009611997565b10610f54576040517f08c379a0000000000000000000000000000000000000000000000000000000008152600401610f4b90612c51565b60405180910390fd5b6000600b83604051610f669190612c71565b908152602001604051809103902060009054906101000a900460ff1660ff1614610fc5576040517f08c379a0000000000000000000000000000000000000000000000000000000008152600401610fbc90612cd4565b60405180910390fd5b6001600b83604051610fd79190612c71565b908152602001604051809103902060008282829054906101000a900460ff166110009190612d30565b92506101000a81548160ff021916908360ff1602179055506001600a60003373ffffffffffffffffffffffffffffffffffffffff1673ffffffffffffffffffffffffffffffffffffffff16815260200190815260200160002060008282829054906101000a900460ff166110749190612d30565b92506101000a81548160ff021916908360ff16021790555061109660086119a5565b6110a060096119a5565b60006110ac6008611997565b90506110b833826119bb565b6110c28184611bd8565b80915050919050565b60007f01ffc9a7000000000000000000000000000000000000000000000000000000007bffffffffffffffffffffffffffffffffffffffffffffffffffffffff1916827bffffffffffffffffffffffffffffffffffffffffffffffffffffffff1916149050919050565b61113e81611c45565b61117d576040517f08c379a000000000000000000000000000000000000000000000000000000000815260040161117490612963565b60405180910390fd5b50565b600033905090565b816004600083815260200190815260200160002060006101000a81548173ffffffffffffffffffffffffffffffffffffffff021916908373ffffffffffffffffffffffffffffffffffffffff160217905550808273ffffffffffffffffffffffffffffffffffffffff166111fb836108fe565b73ffffffffffffffffffffffffffffffffffffffff167f8c5be1e5ebec7d5bd14f71427d1e84f3dd0314c0f7b2291e5b200ac8c7c3b92560405160405180910390a45050565b60008061124d836108fe565b90508073ffffffffffffffffffffffffffffffffffffffff168473ffffffffffffffffffffffffffffffffffffffff16148061128f575061128e8185610d16565b5b806112cd57508373ffffffffffffffffffffffffffffffffffffffff166112b584610703565b73ffffffffffffffffffffffffffffffffffffffff16145b91505092915050565b8273ffffffffffffffffffffffffffffffffffffffff166112f6826108fe565b73ffffffffffffffffffffffffffffffffffffffff161461134c576040517f08c379a000000000000000000000000000000000000000000000000000000000815260040161134390612dd7565b60405180910390fd5b600073ffffffffffffffffffffffffffffffffffffffff168273ffffffffffffffffffffffffffffffffffffffff16036113bb576040517f08c379a00000000000000000000000000000000000000000000000000000000081526004016113b290612e69565b60405180910390fd5b6113c88383836001611c86565b8273ffffffffffffffffffffffffffffffffffffffff166113e8826108fe565b73ffffffffffffffffffffffffffffffffffffffff161461143e576040517f08c379a000000000000000000000000000000000000000000000000000000000815260040161143590612dd7565b60405180910390fd5b6004600082815260200190815260200160002060006101000a81549073ffffffffffffffffffffffffffffffffffffffff02191690556001600360008573ffffffffffffffffffffffffffffffffffffffff1673ffffffffffffffffffffffffffffffffffffffff168152602001908152602001600020600082825403925050819055506001600360008473ffffffffffffffffffffffffffffffffffffffff1673ffffffffffffffffffffffffffffffffffffffff16815260200190815260200160002060008282540192505081905550816002600083815260200190815260200160002060006101000a81548173ffffffffffffffffffffffffffffffffffffffff021916908373ffffffffffffffffffffffffffffffffffffffff160217905550808273ffffffffffffffffffffffffffffffffffffffff168473ffffffffffffffffffffffffffffffffffffffff167fddf252ad1be2c89b69c2b068fc378daa952ba7f163c4a11628f55a4df523b3ef60405160405180910390a46115ca8383836001611c8c565b505050565b6115d7611180565b73ffffffffffffffffffffffffffffffffffffffff166115f5610a67565b73ffffffffffffffffffffffffffffffffffffffff161461164b576040517f08c379a000000000000000000000000000000000000000000000000000000000815260040161164290612ed5565b60405180910390fd5b565b60006002600083815260200190815260200160002060009054906101000a900473ffffffffffffffffffffffffffffffffffffffff169050919050565b6000600760009054906101000a900473ffffffffffffffffffffffffffffffffffffffff16905081600760006101000a81548173ffffffffffffffffffffffffffffffffffffffff021916908373ffffffffffffffffffffffffffffffffffffffff1602179055508173ffffffffffffffffffffffffffffffffffffffff168173ffffffffffffffffffffffffffffffffffffffff167f8be0079c531659141344cd1fd0a4f28419497f9722a3daafe3b4186f6b6457e060405160405180910390a35050565b8173ffffffffffffffffffffffffffffffffffffffff168373ffffffffffffffffffffffffffffffffffffffff16036117be576040517f08c379a00000000000000000000000000000000000000000000000000000000081526004016117b590612f41565b60405180910390fd5b80600560008573ffffffffffffffffffffffffffffffffffffffff1673ffffffffffffffffffffffffffffffffffffffff16815260200190815260200160002060008473ffffffffffffffffffffffffffffffffffffffff1673ffffffffffffffffffffffffffffffffffffffff16815260200190815260200160002060006101000a81548160ff0219169083151502179055508173ffffffffffffffffffffffffffffffffffffffff168373ffffffffffffffffffffffffffffffffffffffff167f17307eab39ab6107e8899845ad3d59bd9653f200f220920489ca2b5937696c31836040516118af9190612111565b60405180910390a3505050565b6118c78484846112d6565b6118d384848484611c92565b611912576040517f08c379a000000000000000000000000000000000000000000000000000000000815260040161190990612fd3565b60405180910390fd5b50505050565b606060405180602001604052806000815250905090565b606061193a82611135565b6000611944611918565b90506000815111611964576040518060200160405280600081525061198f565b8061196e84611e19565b60405160200161197f929190612a51565b6040516020818303038152906040525b915050919050565b600081600001549050919050565b6001816000016000828254019250508190555050565b600073ffffffffffffffffffffffffffffffffffffffff168273ffffffffffffffffffffffffffffffffffffffff1603611a2a576040517f08c379a0000000000000000000000000000000000000000000000000000000008152600401611a219061303f565b60405180910390fd5b611a3381611c45565b15611a73576040517f08c379a0000000000000000000000000000000000000000000000000000000008152600401611a6a906130ab565b60405180910390fd5b611a81600083836001611c86565b611a8a81611c45565b15611aca576040517f08c379a0000000000000000000000000000000000000000000000000000000008152600401611ac1906130ab565b60405180910390fd5b6001600360008473ffffffffffffffffffffffffffffffffffffffff1673ffffffffffffffffffffffffffffffffffffffff16815260200190815260200160002060008282540192505081905550816002600083815260200190815260200160002060006101000a81548173ffffffffffffffffffffffffffffffffffffffff021916908373ffffffffffffffffffffffffffffffffffffffff160217905550808273ffffffffffffffffffffffffffffffffffffffff16600073ffffffffffffffffffffffffffffffffffffffff167fddf252ad1be2c89b69c2b068fc378daa952ba7f163c4a11628f55a4df523b3ef60405160405180910390a4611bd4600083836001611c8c565b5050565b611be182611c45565b611c20576040517f08c379a0000000000000000000000000000000000000000000000000000000008152600401611c179061313d565b60405180910390fd5b80600660008481526020019081526020016000209081611c409190613309565b505050565b60008073ffffffffffffffffffffffffffffffffffffffff16611c678361164d565b73ffffffffffffffffffffffffffffffffffffffff1614159050919050565b50505050565b50505050565b6000611cb38473ffffffffffffffffffffffffffffffffffffffff16611ee7565b15611e0c578373ffffffffffffffffffffffffffffffffffffffff1663150b7a02611cdc611180565b8786866040518563ffffffff1660e01b8152600401611cfe9493929190613430565b6020604051808303816000875af1925050508015611d3a57506040513d601f19601f82011682018060405250810190611d379190613491565b60015b611dbc573d8060008114611d6a576040519150601f19603f3d011682016040523d82523d6000602084013e611d6f565b606091505b506000815103611db4576040517f08c379a0000000000000000000000000000000000000000000000000000000008152600401611dab90612fd3565b60405180910390fd5b805181602001fd5b63150b7a0260e01b7bffffffffffffffffffffffffffffffffffffffffffffffffffffffff1916817bffffffffffffffffffffffffffffffffffffffffffffffffffffffff191614915050611e11565b600190505b949350505050565b606060006001611e2884611f0a565b01905060008167ffffffffffffffff811115611e4757611e46612429565b5b6040519080825280601f01601f191660200182016040528015611e795781602001600182028036833780820191505090505b509050600082602001820190505b600115611edc578080600190039150507f3031323334353637383961626364656600000000000000000000000000000000600a86061a8153600a8581611ed057611ecf6134be565b5b04945060008503611e87575b819350505050919050565b6000808273ffffffffffffffffffffffffffffffffffffffff163b119050919050565b600080600090507a184f03e93ff9f4daa797ed6e38ed64bf6a1f0100000000000000008310611f68577a184f03e93ff9f4daa797ed6e38ed64bf6a1f0100000000000000008381611f5e57611f5d6134be565b5b0492506040810190505b6d04ee2d6d415b85acef81000000008310611fa5576d04ee2d6d415b85acef81000000008381611f9b57611f9a6134be565b5b0492506020810190505b662386f26fc100008310611fd457662386f26fc100008381611fca57611fc96134be565b5b0492506010810190505b6305f5e1008310611ffd576305f5e1008381611ff357611ff26134be565b5b0492506008810190505b6127108310612022576127108381612018576120176134be565b5b0492506004810190505b60648310612045576064838161203b5761203a6134be565b5b0492506002810190505b600a8310612054576001810190505b80915050919050565b6000604051905090565b600080fd5b600080fd5b60007fffffffff0000000000000000000000000000000000000000000000000000000082169050919050565b6120a681612071565b81146120b157600080fd5b50565b6000813590506120c38161209d565b92915050565b6000602082840312156120df576120de612067565b5b60006120ed848285016120b4565b91505092915050565b60008115159050919050565b61210b816120f6565b82525050565b60006020820190506121266000830184612102565b92915050565b600081519050919050565b600082825260208201905092915050565b60005b8381101561216657808201518184015260208101905061214b565b60008484015250505050565b6000601f19601f8301169050919050565b600061218e8261212c565b6121988185612137565b93506121a8818560208601612148565b6121b181612172565b840191505092915050565b600060208201905081810360008301526121d68184612183565b905092915050565b6000819050919050565b6121f1816121de565b81146121fc57600080fd5b50565b60008135905061220e816121e8565b92915050565b60006020828403121561222a57612229612067565b5b6000612238848285016121ff565b91505092915050565b600073ffffffffffffffffffffffffffffffffffffffff82169050919050565b600061226c82612241565b9050919050565b61227c81612261565b82525050565b60006020820190506122976000830184612273565b92915050565b6122a681612261565b81146122b157600080fd5b50565b6000813590506122c38161229d565b92915050565b600080604083850312156122e0576122df612067565b5b60006122ee858286016122b4565b92505060206122ff858286016121ff565b9150509250929050565b60008060006060848603121561232257612321612067565b5b6000612330868287016122b4565b9350506020612341868287016122b4565b9250506040612352868287016121ff565b9150509250925092565b612365816121de565b82525050565b6000602082019050612380600083018461235c565b92915050565b60006020828403121561239c5761239b612067565b5b60006123aa848285016122b4565b91505092915050565b6123bc816120f6565b81146123c757600080fd5b50565b6000813590506123d9816123b3565b92915050565b600080604083850312156123f6576123f5612067565b5b6000612404858286016122b4565b9250506020612415858286016123ca565b9150509250929050565b600080fd5b600080fd5b7f4e487b7100000000000000000000000000000000000000000000000000000000600052604160045260246000fd5b61246182612172565b810181811067ffffffffffffffff821117156124805761247f612429565b5b80604052505050565b600061249361205d565b905061249f8282612458565b919050565b600067ffffffffffffffff8211156124bf576124be612429565b5b6124c882612172565b9050602081019050919050565b82818337600083830152505050565b60006124f76124f2846124a4565b612489565b90508281526020810184848401111561251357612512612424565b5b61251e8482856124d5565b509392505050565b600082601f83011261253b5761253a61241f565b5b813561254b8482602086016124e4565b91505092915050565b6000806000806080858703121561256e5761256d612067565b5b600061257c878288016122b4565b945050602061258d878288016122b4565b935050604061259e878288016121ff565b925050606085013567ffffffffffffffff8111156125bf576125be61206c565b5b6125cb87828801612526565b91505092959194509250565b600080604083850312156125ee576125ed612067565b5b60006125fc858286016122b4565b925050602061260d858286016122b4565b9150509250929050565b600067ffffffffffffffff82111561263257612631612429565b5b61263b82612172565b9050602081019050919050565b600061265b61265684612617565b612489565b90508281526020810184848401111561267757612676612424565b5b6126828482856124d5565b509392505050565b600082601f83011261269f5761269e61241f565b5b81356126af848260208601612648565b91505092915050565b6000602082840312156126ce576126cd612067565b5b600082013567ffffffffffffffff8111156126ec576126eb61206c565b5b6126f88482850161268a565b91505092915050565b7f4e487b7100000000000000000000000000000000000000000000000000000000600052602260045260246000fd5b6000600282049050600182168061274857607f821691505b60208210810361275b5761275a612701565b5b50919050565b7f4552433732313a20617070726f76616c20746f2063757272656e74206f776e6560008201527f7200000000000000000000000000000000000000000000000000000000000000602082015250565b60006127bd602183612137565b91506127c882612761565b604082019050919050565b600060208201905081810360008301526127ec816127b0565b9050919050565b7f4552433732313a20617070726f76652063616c6c6572206973206e6f7420746f60008201527f6b656e206f776e6572206f7220617070726f76656420666f7220616c6c000000602082015250565b600061284f603d83612137565b915061285a826127f3565b604082019050919050565b6000602082019050818103600083015261287e81612842565b9050919050565b7f4552433732313a2063616c6c6572206973206e6f7420746f6b656e206f776e6560008201527f72206f7220617070726f76656400000000000000000000000000000000000000602082015250565b60006128e1602d83612137565b91506128ec82612885565b604082019050919050565b60006020820190508181036000830152612910816128d4565b9050919050565b7f4552433732313a20696e76616c696420746f6b656e2049440000000000000000600082015250565b600061294d601883612137565b915061295882612917565b602082019050919050565b6000602082019050818103600083015261297c81612940565b9050919050565b7f4552433732313a2061646472657373207a65726f206973206e6f74206120766160008201527f6c6964206f776e65720000000000000000000000000000000000000000000000602082015250565b60006129df602983612137565b91506129ea82612983565b604082019050919050565b60006020820190508181036000830152612a0e816129d2565b9050919050565b600081905092915050565b6000612a2b8261212c565b612a358185612a15565b9350612a45818560208601612148565b80840191505092915050565b6000612a5d8285612a20565b9150612a698284612a20565b91508190509392505050565b7f4f776e61626c653a206e6577206f776e657220697320746865207a65726f206160008201527f6464726573730000000000000000000000000000000000000000000000000000602082015250565b6000612ad1602683612137565b9150612adc82612a75565b604082019050919050565b60006020820190508181036000830152612b0081612ac4565b9050919050565b7f4e6f7420456e6f75676820455448210000000000000000000000000000000000600082015250565b6000612b3d600f83612137565b9150612b4882612b07565b602082019050919050565b60006020820190508181036000830152612b6c81612b30565b9050919050565b7f596f75206861766520657863656564656420746865206c696d697420666f722060008201527f6d696e74696e67206e6577204e46540000000000000000000000000000000000602082015250565b6000612bcf602f83612137565b9150612bda82612b73565b604082019050919050565b60006020820190508181036000830152612bfe81612bc2565b9050919050565b7f416c6c20746865204e46547320617265206d696e74656420616c726561647900600082015250565b6000612c3b601f83612137565b9150612c4682612c05565b602082019050919050565b60006020820190508181036000830152612c6a81612c2e565b9050919050565b6000612c7d8284612a20565b915081905092915050565b7f596f75206861766520616c7265616479206d696e7465642074686973204e4654600082015250565b6000612cbe602083612137565b9150612cc982612c88565b602082019050919050565b60006020820190508181036000830152612ced81612cb1565b9050919050565b600060ff82169050919050565b7f4e487b7100000000000000000000000000000000000000000000000000000000600052601160045260246000fd5b6000612d3b82612cf4565b9150612d4683612cf4565b9250828201905060ff811115612d5f57612d5e612d01565b5b92915050565b7f4552433732313a207472616e736665722066726f6d20696e636f72726563742060008201527f6f776e6572000000000000000000000000000000000000000000000000000000602082015250565b6000612dc1602583612137565b9150612dcc82612d65565b604082019050919050565b60006020820190508181036000830152612df081612db4565b9050919050565b7f4552433732313a207472616e7366657220746f20746865207a65726f2061646460008201527f7265737300000000000000000000000000000000000000000000000000000000602082015250565b6000612e53602483612137565b9150612e5e82612df7565b604082019050919050565b60006020820190508181036000830152612e8281612e46565b9050919050565b7f4f776e61626c653a2063616c6c6572206973206e6f7420746865206f776e6572600082015250565b6000612ebf602083612137565b9150612eca82612e89565b602082019050919050565b60006020820190508181036000830152612eee81612eb2565b9050919050565b7f4552433732313a20617070726f766520746f2063616c6c657200000000000000600082015250565b6000612f2b601983612137565b9150612f3682612ef5565b602082019050919050565b60006020820190508181036000830152612f5a81612f1e565b9050919050565b7f4552433732313a207472616e7366657220746f206e6f6e20455243373231526560008201527f63656976657220696d706c656d656e7465720000000000000000000000000000602082015250565b6000612fbd603283612137565b9150612fc882612f61565b604082019050919050565b60006020820190508181036000830152612fec81612fb0565b9050919050565b7f4552433732313a206d696e7420746f20746865207a65726f2061646472657373600082015250565b6000613029602083612137565b915061303482612ff3565b602082019050919050565b600060208201905081810360008301526130588161301c565b9050919050565b7f4552433732313a20746f6b656e20616c7265616479206d696e74656400000000600082015250565b6000613095601c83612137565b91506130a08261305f565b602082019050919050565b600060208201905081810360008301526130c481613088565b9050919050565b7f45524337323155524953746f726167653a2055524920736574206f66206e6f6e60008201527f6578697374656e7420746f6b656e000000000000000000000000000000000000602082015250565b6000613127602e83612137565b9150613132826130cb565b604082019050919050565b600060208201905081810360008301526131568161311a565b9050919050565b60008190508160005260206000209050919050565b60006020601f8301049050919050565b600082821b905092915050565b6000600883026131bf7fffffffffffffffffffffffffffffffffffffffffffffffffffffffffffffffff82613182565b6131c98683613182565b95508019841693508086168417925050509392505050565b6000819050919050565b60006132066132016131fc846121de565b6131e1565b6121de565b9050919050565b6000819050919050565b613220836131eb565b61323461322c8261320d565b84845461318f565b825550505050565b600090565b61324961323c565b613254818484613217565b505050565b5b818110156132785761326d600082613241565b60018101905061325a565b5050565b601f8211156132bd5761328e8161315d565b61329784613172565b810160208510156132a6578190505b6132ba6132b285613172565b830182613259565b50505b505050565b600082821c905092915050565b60006132e0600019846008026132c2565b1980831691505092915050565b60006132f983836132cf565b9150826002028217905092915050565b6133128261212c565b67ffffffffffffffff81111561332b5761332a612429565b5b6133358254612730565b61334082828561327c565b600060209050601f8311600181146133735760008415613361578287015190505b61336b85826132ed565b8655506133d3565b601f1984166133818661315d565b60005b828110156133a957848901518255600182019150602085019450602081019050613384565b868310156133c657848901516133c2601f8916826132cf565b8355505b6001600288020188555050505b505050505050565b600081519050919050565b600082825260208201905092915050565b6000613402826133db565b61340c81856133e6565b935061341c818560208601612148565b61342581612172565b840191505092915050565b60006080820190506134456000830187612273565b6134526020830186612273565b61345f604083018561235c565b818103606083015261347181846133f7565b905095945050505050565b60008151905061348b8161209d565b92915050565b6000602082840312156134a7576134a6612067565b5b60006134b58482850161347c565b91505092915050565b7f4e487b7100000000000000000000000000000000000000000000000000000000600052601260045260246000fdfea2646970667358221220a54f2103b2026d090252708a9a99893ea21ca8cbde07651b8f3d3f4ffa5a4f6664736f6c63430008120033",
    "linkReferences": {},
    "deployedLinkReferences": {}
}